{
  "address": "0xcD34bC5B03C954268d27c9Bc165a623c318bD0a8",
  "abi": [
    {
      "inputs": [],
      "stateMutability": "nonpayable",
      "type": "constructor"
    },
    {
      "anonymous": false,
      "inputs": [
        {
          "indexed": true,
          "internalType": "address",
          "name": "previousOwner",
          "type": "address"
        },
        {
          "indexed": true,
          "internalType": "address",
          "name": "newOwner",
          "type": "address"
        }
      ],
      "name": "OwnershipTransferred",
      "type": "event"
    },
    {
      "anonymous": false,
      "inputs": [
        {
          "indexed": false,
          "internalType": "address[]",
          "name": "vestingAddresses",
          "type": "address[]"
        }
      ],
      "name": "SetVestingAddresses",
      "type": "event"
    },
    {
      "inputs": [],
      "name": "API3_POOL",
      "outputs": [
        {
          "internalType": "address",
          "name": "",
          "type": "address"
        }
      ],
      "stateMutability": "view",
      "type": "function"
    },
    {
      "inputs": [],
      "name": "API3_TOKEN",
      "outputs": [
        {
          "internalType": "address",
          "name": "",
          "type": "address"
        }
      ],
      "stateMutability": "view",
      "type": "function"
    },
    {
      "inputs": [],
      "name": "PRIMARY_TREASURY",
      "outputs": [
        {
          "internalType": "address",
          "name": "",
          "type": "address"
        }
      ],
      "stateMutability": "view",
      "type": "function"
    },
    {
      "inputs": [],
      "name": "SECONDARY_TREASURY",
      "outputs": [
        {
          "internalType": "address",
          "name": "",
          "type": "address"
        }
      ],
      "stateMutability": "view",
      "type": "function"
    },
    {
      "inputs": [],
      "name": "TIMELOCK_MANAGER",
      "outputs": [
        {
          "internalType": "address",
          "name": "",
          "type": "address"
        }
      ],
      "stateMutability": "view",
      "type": "function"
    },
    {
      "inputs": [],
      "name": "V1_TREASURY",
      "outputs": [
        {
          "internalType": "address",
          "name": "",
          "type": "address"
        }
      ],
      "stateMutability": "view",
      "type": "function"
    },
    {
      "inputs": [],
      "name": "api3Pool",
      "outputs": [
        {
          "internalType": "contract IApi3Pool",
          "name": "",
          "type": "address"
        }
      ],
      "stateMutability": "view",
      "type": "function"
    },
    {
      "inputs": [],
      "name": "api3Token",
      "outputs": [
        {
          "internalType": "contract IERC20",
          "name": "",
          "type": "address"
        }
      ],
      "stateMutability": "view",
      "type": "function"
    },
    {
      "inputs": [],
      "name": "getCirculatingSupply",
      "outputs": [
        {
          "internalType": "uint256",
          "name": "",
          "type": "uint256"
        }
      ],
      "stateMutability": "view",
      "type": "function"
    },
    {
      "inputs": [],
      "name": "getLockedByGovernance",
      "outputs": [
        {
          "internalType": "uint256",
          "name": "",
          "type": "uint256"
        }
      ],
      "stateMutability": "view",
      "type": "function"
    },
    {
      "inputs": [],
      "name": "getLockedRewards",
      "outputs": [
        {
          "internalType": "uint256",
          "name": "totalLockedRewards",
          "type": "uint256"
        }
      ],
      "stateMutability": "view",
      "type": "function"
    },
    {
      "inputs": [],
      "name": "getLockedVestings",
      "outputs": [
        {
          "internalType": "uint256",
          "name": "totalLockedVestings",
          "type": "uint256"
        }
      ],
      "stateMutability": "view",
      "type": "function"
    },
    {
      "inputs": [],
      "name": "getTimelocked",
      "outputs": [
        {
          "internalType": "uint256",
          "name": "",
          "type": "uint256"
        }
      ],
      "stateMutability": "view",
      "type": "function"
    },
    {
      "inputs": [],
      "name": "getTotalLocked",
      "outputs": [
        {
          "internalType": "uint256",
          "name": "",
          "type": "uint256"
        }
      ],
      "stateMutability": "view",
      "type": "function"
    },
    {
      "inputs": [],
      "name": "owner",
      "outputs": [
        {
          "internalType": "address",
          "name": "",
          "type": "address"
        }
      ],
      "stateMutability": "view",
      "type": "function"
    },
    {
      "inputs": [],
      "name": "renounceOwnership",
      "outputs": [],
      "stateMutability": "nonpayable",
      "type": "function"
    },
    {
      "inputs": [
        {
          "internalType": "address[]",
          "name": "_vestingAddresses",
          "type": "address[]"
        }
      ],
      "name": "setVestingAddresses",
      "outputs": [],
      "stateMutability": "nonpayable",
      "type": "function"
    },
    {
      "inputs": [],
      "name": "timelockManager",
      "outputs": [
        {
          "internalType": "contract ITimelockManager",
          "name": "",
          "type": "address"
        }
      ],
      "stateMutability": "view",
      "type": "function"
    },
    {
      "inputs": [
        {
          "internalType": "address",
          "name": "newOwner",
          "type": "address"
        }
      ],
      "name": "transferOwnership",
      "outputs": [],
      "stateMutability": "nonpayable",
      "type": "function"
    },
    {
      "inputs": [
        {
          "internalType": "uint256",
          "name": "",
          "type": "uint256"
        }
      ],
      "name": "vestingAddresses",
      "outputs": [
        {
          "internalType": "address",
          "name": "",
          "type": "address"
        }
      ],
      "stateMutability": "view",
      "type": "function"
    }
  ],
  "transactionHash": "0x08b2ef5a67cfa7d01e3f1eb4ca37ed39e4ff9fd3c4ede259cea338c9e6929924",
  "args": [],
  "solcInputHash": "b3133c648397a6da3bb4cc8ecd7614d4",
  "bytecode": "0x60e060405234801561001057600080fd5b5061001a3361008b565b7f0b38210ea11411557c13457d4da7dc6ea731b88a0000000000000000000000006080527f6dd655f10d4b9e242ae186d9050b68f725c76d7600000000000000000000000060a0527ffaef86994a37f1c8b2a5c73648f07dd4eff02baa00000000000000000000000060c0526100db565b600080546001600160a01b038381166001600160a01b0319831681178455604051919092169283917f8be0079c531659141344cd1fd0a4f28419497f9722a3daafe3b4186f6b6457e09190a35050565b60805160601c60a05160601c60c05160601c6110e16101596000396000818161028401526103dd0152600081816101fe015281816105d8015281816106770152818161071f015281816107c201526108810152600081816101d70152818161032d015281816109c501528181610a700152610b1b01526110e16000f3fe608060405234801561001057600080fd5b506004361061012c5760003560e01c80638da5cb5b116100ad578063bf5669bd11610071578063bf5669bd1461027f578063d6899ae4146102a6578063f2fde38b146102c1578063f4732da6146102d4578063f9352eed146102dc57600080fd5b80638da5cb5b14610228578063907d6e2714610239578063a90fc38314610241578063b0c78ea814610249578063b77c38bf1461026457600080fd5b80634c67f4de116100f45780634c67f4de146101b5578063566890d9146101ca578063613d517d146101d25780636fe2a2d7146101f9578063715018a61461022057600080fd5b80630d427b72146101315780630e5b4f0d146101615780632b112e491461017c578063344e58d3146101925780633dbe51d01461019a575b600080fd5b61014461013f366004610eb9565b6102f7565b6040516001600160a01b0390911681526020015b60405180910390f35b61014473d9f80bdb37e6bad114d747e60ce6d2aaf26704ae81565b610184610321565b604051908152602001610158565b6101846103cb565b61014473faef86994a37f1c8b2a5c73648f07dd4eff02baa81565b6101c86101c3366004610d53565b610552565b005b6101846105d3565b6101447f000000000000000000000000000000000000000000000000000000000000000081565b6101447f000000000000000000000000000000000000000000000000000000000000000081565b6101c8610947565b6000546001600160a01b0316610144565b61018461097d565b610184610999565b61014473e7af7c5982e073ac6525a34821fe1b3e8e43209981565b610144736dd655f10d4b9e242ae186d9050b68f725c76d7681565b6101447f000000000000000000000000000000000000000000000000000000000000000081565b61014473556ecbb0311d350491ba0ec7e019c354d7723ce081565b6101c86102cf366004610d31565b610ba7565b610184610c42565b610144730b38210ea11411557c13457d4da7dc6ea731b88a81565b6001818154811061030757600080fd5b6000918252602090912001546001600160a01b0316905081565b600061032b610c42565b7f00000000000000000000000000000000000000000000000000000000000000006001600160a01b03166318160ddd6040518163ffffffff1660e01b815260040160206040518083038186803b15801561038457600080fd5b505afa158015610398573d6000803e3d6000fd5b505050506040513d601f19601f820116820180604052508101906103bc9190610ed2565b6103c69190611020565b905090565b6000805b60015481101561054e5760007f00000000000000000000000000000000000000000000000000000000000000006001600160a01b0316631369a9276001848154811061041d5761041d61107f565b60009182526020909120015460405160e083901b6001600160e01b03191681526001600160a01b03909116600482015260240160806040518083038186803b15801561046857600080fd5b505afa15801561047c573d6000803e3d6000fd5b505050506040513d601f19601f820116820180604052508101906104a09190610e73565b9050806040015142116104c05780516104b99084610fc7565b925061053a565b806060015142106104d1575061053c565b6000816040015182606001516104e79190611020565b905060008260400151426104fb9190611020565b90506000828285600001516105109190611001565b61051a9190610fdf565b845190915061052a908290611020565b6105349087610fc7565b95505050505b505b806105468161104e565b9150506103cf565b5090565b6000546001600160a01b031633146105855760405162461bcd60e51b815260040161057c90610f38565b60405180910390fd5b8051610598906001906020840190610ca4565b507f20d5cc5c404f7bcf167ea08ea1136482041e05e5641946d3e3de6690a23fbe39816040516105c89190610eeb565b60405180910390a150565b6000807f00000000000000000000000000000000000000000000000000000000000000006001600160a01b031663ac4746ab6040518163ffffffff1660e01b815260040160206040518083038186803b15801561062f57600080fd5b505afa158015610643573d6000803e3d6000fd5b505050506040513d601f19601f820116820180604052508101906106679190610ed2565b6106719042610fdf565b905060007f00000000000000000000000000000000000000000000000000000000000000006001600160a01b0316635856130a6040518163ffffffff1660e01b815260040160206040518083038186803b1580156106ce57600080fd5b505afa1580156106e2573d6000803e3d6000fd5b505050506040513d601f19601f820116820180604052508101906107069190610ed2565b6107109083611020565b61071b906001610fc7565b90507f00000000000000000000000000000000000000000000000000000000000000006001600160a01b031663b70e6be66040518163ffffffff1660e01b815260040160206040518083038186803b15801561077657600080fd5b505afa15801561078a573d6000803e3d6000fd5b505050506040513d601f19601f820116820180604052508101906107ae9190610ed2565b6107b9906001610fc7565b81101561085f577f00000000000000000000000000000000000000000000000000000000000000006001600160a01b031663b70e6be66040518163ffffffff1660e01b815260040160206040518083038186803b15801561081957600080fd5b505afa15801561082d573d6000803e3d6000fd5b505050506040513d601f19601f820116820180604052508101906108519190610ed2565b61085c906001610fc7565b90505b815b81811061094157604051634091fd3f60e01b8152600481018290526000907f00000000000000000000000000000000000000000000000000000000000000006001600160a01b031690634091fd3f9060240160806040518083038186803b1580156108cb57600080fd5b505afa1580156108df573d6000803e3d6000fd5b505050506040513d601f19601f820116820180604052508101906109039190610e07565b805190915063ffffffff161561092e57602081015161092b906001600160e01b031686610fc7565b94505b508061093981611037565b915050610861565b50505090565b6000546001600160a01b031633146109715760405162461bcd60e51b815260040161057c90610f38565b61097b6000610c54565b565b60006109876103cb565b61098f6105d3565b6103c69190610fc7565b6040516370a0823160e01b815273556ecbb0311d350491ba0ec7e019c354d7723ce060048201526000907f00000000000000000000000000000000000000000000000000000000000000006001600160a01b0316906370a082319060240160206040518083038186803b158015610a0f57600080fd5b505afa158015610a23573d6000803e3d6000fd5b505050506040513d601f19601f82011682018060405250810190610a479190610ed2565b6040516370a0823160e01b815273d9f80bdb37e6bad114d747e60ce6d2aaf26704ae60048201527f00000000000000000000000000000000000000000000000000000000000000006001600160a01b0316906370a082319060240160206040518083038186803b158015610aba57600080fd5b505afa158015610ace573d6000803e3d6000fd5b505050506040513d601f19601f82011682018060405250810190610af29190610ed2565b6040516370a0823160e01b815273e7af7c5982e073ac6525a34821fe1b3e8e43209960048201527f00000000000000000000000000000000000000000000000000000000000000006001600160a01b0316906370a082319060240160206040518083038186803b158015610b6557600080fd5b505afa158015610b79573d6000803e3d6000fd5b505050506040513d601f19601f82011682018060405250810190610b9d9190610ed2565b61098f9190610fc7565b6000546001600160a01b03163314610bd15760405162461bcd60e51b815260040161057c90610f38565b6001600160a01b038116610c365760405162461bcd60e51b815260206004820152602660248201527f4f776e61626c653a206e6577206f776e657220697320746865207a65726f206160448201526564647265737360d01b606482015260840161057c565b610c3f81610c54565b50565b6000610c4c610999565b61098f61097d565b600080546001600160a01b038381166001600160a01b0319831681178455604051919092169283917f8be0079c531659141344cd1fd0a4f28419497f9722a3daafe3b4186f6b6457e09190a35050565b828054828255906000526020600020908101928215610cf9579160200282015b82811115610cf957825182546001600160a01b0319166001600160a01b03909116178255602090920191600190910190610cc4565b5061054e9291505b8082111561054e5760008155600101610d01565b80356001600160a01b0381168114610d2c57600080fd5b919050565b600060208284031215610d4357600080fd5b610d4c82610d15565b9392505050565b60006020808385031215610d6657600080fd5b823567ffffffffffffffff80821115610d7e57600080fd5b818501915085601f830112610d9257600080fd5b813581811115610da457610da4611095565b8060051b9150610db5848301610f96565b8181528481019084860184860187018a1015610dd057600080fd5b600095505b83861015610dfa57610de681610d15565b835260019590950194918601918601610dd5565b5098975050505050505050565b600060808284031215610e1957600080fd5b610e21610f6d565b825163ffffffff81168114610e3557600080fd5b815260208301516001600160e01b0381168114610e5157600080fd5b6020820152604083810151908201526060928301519281019290925250919050565b600060808284031215610e8557600080fd5b610e8d610f6d565b825181526020830151602082015260408301516040820152606083015160608201528091505092915050565b600060208284031215610ecb57600080fd5b5035919050565b600060208284031215610ee457600080fd5b5051919050565b6020808252825182820181905260009190848201906040850190845b81811015610f2c5783516001600160a01b031683529284019291840191600101610f07565b50909695505050505050565b6020808252818101527f4f776e61626c653a2063616c6c6572206973206e6f7420746865206f776e6572604082015260600190565b6040516080810167ffffffffffffffff81118282101715610f9057610f90611095565b60405290565b604051601f8201601f1916810167ffffffffffffffff81118282101715610fbf57610fbf611095565b604052919050565b60008219821115610fda57610fda611069565b500190565b600082610ffc57634e487b7160e01b600052601260045260246000fd5b500490565b600081600019048311821515161561101b5761101b611069565b500290565b60008282101561103257611032611069565b500390565b60008161104657611046611069565b506000190190565b600060001982141561106257611062611069565b5060010190565b634e487b7160e01b600052601160045260246000fd5b634e487b7160e01b600052603260045260246000fd5b634e487b7160e01b600052604160045260246000fdfea2646970667358221220393b66e71d8dc6a247a2ef9e84c2921ddc20f30cde572a3fc8c4f8d9bcc2a53964736f6c63430008060033",
  "devdoc": {
    "kind": "dev",
    "methods": {
      "owner()": {
        "details": "Returns the address of the current owner."
      },
      "renounceOwnership()": {
        "details": "Leaves the contract without owner. It will not be possible to call `onlyOwner` functions anymore. Can only be called by the current owner. NOTE: Renouncing ownership will leave the contract without an owner, thereby removing any functionality that is only available to the owner."
      },
      "transferOwnership(address)": {
        "details": "Transfers ownership of the contract to a new account (`newOwner`). Can only be called by the current owner."
      }
    },
    "version": 1
  },
  "userdoc": {
    "kind": "user",
    "methods": {},
    "version": 1
  },
  "storageLayout": {
    "storage": [
      {
        "astId": 7,
        "contract": "contracts/Api3CirculatingSupply.sol:Api3CirculatingSupply",
        "label": "_owner",
        "offset": 0,
        "slot": "0",
        "type": "t_address"
      },
      {
        "astId": 245,
        "contract": "contracts/Api3CirculatingSupply.sol:Api3CirculatingSupply",
        "label": "vestingAddresses",
        "offset": 0,
        "slot": "1",
        "type": "t_array(t_address)dyn_storage"
      }
    ],
    "types": {
      "t_address": {
        "encoding": "inplace",
        "label": "address",
        "numberOfBytes": "20"
      },
      "t_array(t_address)dyn_storage": {
        "base": "t_address",
        "encoding": "dynamic_array",
        "label": "address[]",
        "numberOfBytes": "32"
      }
    }
  }
}