{
  "address": "0xF84B11c31469706B50E57B398c63D7d13187608f",
  "abi": [
    {
      "inputs": [],
      "stateMutability": "nonpayable",
      "type": "constructor"
    },
    {
      "anonymous": false,
      "inputs": [
        {
          "indexed": true,
          "internalType": "address",
          "name": "previousOwner",
          "type": "address"
        },
        {
          "indexed": true,
          "internalType": "address",
          "name": "newOwner",
          "type": "address"
        }
      ],
      "name": "OwnershipTransferred",
      "type": "event"
    },
    {
      "anonymous": false,
      "inputs": [
        {
          "indexed": false,
          "internalType": "address[]",
          "name": "vestingAddresses",
          "type": "address[]"
        }
      ],
      "name": "SetVestingAddresses",
      "type": "event"
    },
    {
      "inputs": [],
      "name": "API3_POOL",
      "outputs": [
        {
          "internalType": "address",
          "name": "",
          "type": "address"
        }
      ],
      "stateMutability": "view",
      "type": "function"
    },
    {
      "inputs": [],
      "name": "API3_TOKEN",
      "outputs": [
        {
          "internalType": "address",
          "name": "",
          "type": "address"
        }
      ],
      "stateMutability": "view",
      "type": "function"
    },
    {
      "inputs": [],
      "name": "PRIMARY_TREASURY",
      "outputs": [
        {
          "internalType": "address",
          "name": "",
          "type": "address"
        }
      ],
      "stateMutability": "view",
      "type": "function"
    },
    {
      "inputs": [],
      "name": "SECONDARY_TREASURY",
      "outputs": [
        {
          "internalType": "address",
          "name": "",
          "type": "address"
        }
      ],
      "stateMutability": "view",
      "type": "function"
    },
    {
      "inputs": [],
      "name": "TIMELOCK_MANAGER",
      "outputs": [
        {
          "internalType": "address",
          "name": "",
          "type": "address"
        }
      ],
      "stateMutability": "view",
      "type": "function"
    },
    {
      "inputs": [],
      "name": "V1_TREASURY",
      "outputs": [
        {
          "internalType": "address",
          "name": "",
          "type": "address"
        }
      ],
      "stateMutability": "view",
      "type": "function"
    },
    {
      "inputs": [],
      "name": "api3Pool",
      "outputs": [
        {
          "internalType": "contract IApi3Pool",
          "name": "",
          "type": "address"
        }
      ],
      "stateMutability": "view",
      "type": "function"
    },
    {
      "inputs": [],
      "name": "api3Token",
      "outputs": [
        {
          "internalType": "contract IERC20",
          "name": "",
          "type": "address"
        }
      ],
      "stateMutability": "view",
      "type": "function"
    },
    {
      "inputs": [],
      "name": "getLockedByGovernance",
      "outputs": [
        {
          "internalType": "uint256",
          "name": "lockedByGoverance",
          "type": "uint256"
        }
      ],
      "stateMutability": "view",
      "type": "function"
    },
    {
      "inputs": [],
      "name": "getLockedRewards",
      "outputs": [
        {
          "internalType": "uint256",
          "name": "totalLockedRewards",
          "type": "uint256"
        }
      ],
      "stateMutability": "view",
      "type": "function"
    },
    {
      "inputs": [],
      "name": "getLockedVestings",
      "outputs": [
        {
          "internalType": "uint256",
          "name": "totalLockedVestings",
          "type": "uint256"
        }
      ],
      "stateMutability": "view",
      "type": "function"
    },
    {
      "inputs": [],
      "name": "getTimelocked",
      "outputs": [
        {
          "internalType": "uint256",
          "name": "timelocked",
          "type": "uint256"
        }
      ],
      "stateMutability": "view",
      "type": "function"
    },
    {
      "inputs": [],
      "name": "getTotalLocked",
      "outputs": [
        {
          "internalType": "uint256",
          "name": "totalLocked",
          "type": "uint256"
        }
      ],
      "stateMutability": "view",
      "type": "function"
    },
    {
      "inputs": [],
      "name": "owner",
      "outputs": [
        {
          "internalType": "address",
          "name": "",
          "type": "address"
        }
      ],
      "stateMutability": "view",
      "type": "function"
    },
    {
      "inputs": [],
      "name": "renounceOwnership",
      "outputs": [],
      "stateMutability": "nonpayable",
      "type": "function"
    },
    {
      "inputs": [
        {
          "internalType": "address[]",
          "name": "_vestingAddresses",
          "type": "address[]"
        }
      ],
      "name": "setVestingAddresses",
      "outputs": [],
      "stateMutability": "nonpayable",
      "type": "function"
    },
    {
      "inputs": [],
      "name": "timelockManager",
      "outputs": [
        {
          "internalType": "contract ITimelockManager",
          "name": "",
          "type": "address"
        }
      ],
      "stateMutability": "view",
      "type": "function"
    },
    {
      "inputs": [
        {
          "internalType": "address",
          "name": "newOwner",
          "type": "address"
        }
      ],
      "name": "transferOwnership",
      "outputs": [],
      "stateMutability": "nonpayable",
      "type": "function"
    },
    {
      "inputs": [
        {
          "internalType": "uint256",
          "name": "",
          "type": "uint256"
        }
      ],
      "name": "vestingAddresses",
      "outputs": [
        {
          "internalType": "address",
          "name": "",
          "type": "address"
        }
      ],
      "stateMutability": "view",
      "type": "function"
    }
  ],
  "transactionHash": "0x0684243a2f5f4404f2c2ca018ee8fe81e78ee2f8895ec323c11dbcd6e547eb93",
  "args": [],
  "solcInputHash": "f37436512f7aacdd1b51de02b39c3777",
  "bytecode": "0x60e060405234801561001057600080fd5b5061001a3361008b565b7f0b38210ea11411557c13457d4da7dc6ea731b88a0000000000000000000000006080527f6dd655f10d4b9e242ae186d9050b68f725c76d7600000000000000000000000060a0527ffaef86994a37f1c8b2a5c73648f07dd4eff02baa00000000000000000000000060c0526100db565b600080546001600160a01b038381166001600160a01b0319831681178455604051919092169283917f8be0079c531659141344cd1fd0a4f28419497f9722a3daafe3b4186f6b6457e09190a35050565b60805160601c60a05160601c60c05160601c6110296101526000396000818161027101526103200152600081816101eb0152818161051b015281816105ba015281816106620152818161070501526107c40152600081816101c40152818161090d015281816109b80152610a6301526110296000f3fe608060405234801561001057600080fd5b50600436106101215760003560e01c80638da5cb5b116100ad578063bf5669bd11610071578063bf5669bd1461026c578063d6899ae414610293578063f2fde38b146102ae578063f4732da6146102c1578063f9352eed146102c957600080fd5b80638da5cb5b14610215578063907d6e2714610226578063a90fc3831461022e578063b0c78ea814610236578063b77c38bf1461025157600080fd5b80634c67f4de116100f45780634c67f4de146101a2578063566890d9146101b7578063613d517d146101bf5780636fe2a2d7146101e6578063715018a61461020d57600080fd5b80630d427b72146101265780630e5b4f0d14610156578063344e58d3146101715780633dbe51d014610187575b600080fd5b610139610134366004610e01565b6102e4565b6040516001600160a01b0390911681526020015b60405180910390f35b61013973d9f80bdb37e6bad114d747e60ce6d2aaf26704ae81565b61017961030e565b60405190815260200161014d565b61013973faef86994a37f1c8b2a5c73648f07dd4eff02baa81565b6101b56101b0366004610c9b565b610495565b005b610179610516565b6101397f000000000000000000000000000000000000000000000000000000000000000081565b6101397f000000000000000000000000000000000000000000000000000000000000000081565b6101b561088a565b6000546001600160a01b0316610139565b6101796108c0565b6101796108e1565b61013973e7af7c5982e073ac6525a34821fe1b3e8e43209981565b610139736dd655f10d4b9e242ae186d9050b68f725c76d7681565b6101397f000000000000000000000000000000000000000000000000000000000000000081565b61013973556ecbb0311d350491ba0ec7e019c354d7723ce081565b6101b56102bc366004610c79565b610aef565b610179610b8a565b610139730b38210ea11411557c13457d4da7dc6ea731b88a81565b600181815481106102f457600080fd5b6000918252602090912001546001600160a01b0316905081565b6000805b6001548110156104915760007f00000000000000000000000000000000000000000000000000000000000000006001600160a01b0316631369a9276001848154811061036057610360610fc7565b60009182526020909120015460405160e083901b6001600160e01b03191681526001600160a01b03909116600482015260240160806040518083038186803b1580156103ab57600080fd5b505afa1580156103bf573d6000803e3d6000fd5b505050506040513d601f19601f820116820180604052508101906103e39190610dbb565b9050806040015142116104035780516103fc9084610f0f565b925061047d565b80606001514210610414575061047f565b60008160400151826060015161042a9190610f68565b9050600082604001514261043e9190610f68565b90506000828285600001516104539190610f49565b61045d9190610f27565b845190915061046d908290610f68565b6104779087610f0f565b95505050505b505b8061048981610f96565b915050610312565b5090565b6000546001600160a01b031633146104c85760405162461bcd60e51b81526004016104bf90610e80565b60405180910390fd5b80516104db906001906020840190610bec565b507f20d5cc5c404f7bcf167ea08ea1136482041e05e5641946d3e3de6690a23fbe398160405161050b9190610e33565b60405180910390a150565b6000807f00000000000000000000000000000000000000000000000000000000000000006001600160a01b031663ac4746ab6040518163ffffffff1660e01b815260040160206040518083038186803b15801561057257600080fd5b505afa158015610586573d6000803e3d6000fd5b505050506040513d601f19601f820116820180604052508101906105aa9190610e1a565b6105b49042610f27565b905060007f00000000000000000000000000000000000000000000000000000000000000006001600160a01b0316635856130a6040518163ffffffff1660e01b815260040160206040518083038186803b15801561061157600080fd5b505afa158015610625573d6000803e3d6000fd5b505050506040513d601f19601f820116820180604052508101906106499190610e1a565b6106539083610f68565b61065e906001610f0f565b90507f00000000000000000000000000000000000000000000000000000000000000006001600160a01b031663b70e6be66040518163ffffffff1660e01b815260040160206040518083038186803b1580156106b957600080fd5b505afa1580156106cd573d6000803e3d6000fd5b505050506040513d601f19601f820116820180604052508101906106f19190610e1a565b6106fc906001610f0f565b8110156107a2577f00000000000000000000000000000000000000000000000000000000000000006001600160a01b031663b70e6be66040518163ffffffff1660e01b815260040160206040518083038186803b15801561075c57600080fd5b505afa158015610770573d6000803e3d6000fd5b505050506040513d601f19601f820116820180604052508101906107949190610e1a565b61079f906001610f0f565b90505b815b81811061088457604051634091fd3f60e01b8152600481018290526000907f00000000000000000000000000000000000000000000000000000000000000006001600160a01b031690634091fd3f9060240160806040518083038186803b15801561080e57600080fd5b505afa158015610822573d6000803e3d6000fd5b505050506040513d601f19601f820116820180604052508101906108469190610d4f565b805190915063ffffffff161561087157602081015161086e906001600160e01b031686610f0f565b94505b508061087c81610f7f565b9150506107a4565b50505090565b6000546001600160a01b031633146108b45760405162461bcd60e51b81526004016104bf90610e80565b6108be6000610b9c565b565b60006108ca61030e565b6108d2610516565b6108dc9190610f0f565b905090565b6040516370a0823160e01b815273556ecbb0311d350491ba0ec7e019c354d7723ce060048201526000907f00000000000000000000000000000000000000000000000000000000000000006001600160a01b0316906370a082319060240160206040518083038186803b15801561095757600080fd5b505afa15801561096b573d6000803e3d6000fd5b505050506040513d601f19601f8201168201806040525081019061098f9190610e1a565b6040516370a0823160e01b815273d9f80bdb37e6bad114d747e60ce6d2aaf26704ae60048201527f00000000000000000000000000000000000000000000000000000000000000006001600160a01b0316906370a082319060240160206040518083038186803b158015610a0257600080fd5b505afa158015610a16573d6000803e3d6000fd5b505050506040513d601f19601f82011682018060405250810190610a3a9190610e1a565b6040516370a0823160e01b815273e7af7c5982e073ac6525a34821fe1b3e8e43209960048201527f00000000000000000000000000000000000000000000000000000000000000006001600160a01b0316906370a082319060240160206040518083038186803b158015610aad57600080fd5b505afa158015610ac1573d6000803e3d6000fd5b505050506040513d601f19601f82011682018060405250810190610ae59190610e1a565b6108d29190610f0f565b6000546001600160a01b03163314610b195760405162461bcd60e51b81526004016104bf90610e80565b6001600160a01b038116610b7e5760405162461bcd60e51b815260206004820152602660248201527f4f776e61626c653a206e6577206f776e657220697320746865207a65726f206160448201526564647265737360d01b60648201526084016104bf565b610b8781610b9c565b50565b6000610b946108e1565b6108d26108c0565b600080546001600160a01b038381166001600160a01b0319831681178455604051919092169283917f8be0079c531659141344cd1fd0a4f28419497f9722a3daafe3b4186f6b6457e09190a35050565b828054828255906000526020600020908101928215610c41579160200282015b82811115610c4157825182546001600160a01b0319166001600160a01b03909116178255602090920191600190910190610c0c565b506104919291505b808211156104915760008155600101610c49565b80356001600160a01b0381168114610c7457600080fd5b919050565b600060208284031215610c8b57600080fd5b610c9482610c5d565b9392505050565b60006020808385031215610cae57600080fd5b823567ffffffffffffffff80821115610cc657600080fd5b818501915085601f830112610cda57600080fd5b813581811115610cec57610cec610fdd565b8060051b9150610cfd848301610ede565b8181528481019084860184860187018a1015610d1857600080fd5b600095505b83861015610d4257610d2e81610c5d565b835260019590950194918601918601610d1d565b5098975050505050505050565b600060808284031215610d6157600080fd5b610d69610eb5565b825163ffffffff81168114610d7d57600080fd5b815260208301516001600160e01b0381168114610d9957600080fd5b6020820152604083810151908201526060928301519281019290925250919050565b600060808284031215610dcd57600080fd5b610dd5610eb5565b825181526020830151602082015260408301516040820152606083015160608201528091505092915050565b600060208284031215610e1357600080fd5b5035919050565b600060208284031215610e2c57600080fd5b5051919050565b6020808252825182820181905260009190848201906040850190845b81811015610e745783516001600160a01b031683529284019291840191600101610e4f565b50909695505050505050565b6020808252818101527f4f776e61626c653a2063616c6c6572206973206e6f7420746865206f776e6572604082015260600190565b6040516080810167ffffffffffffffff81118282101715610ed857610ed8610fdd565b60405290565b604051601f8201601f1916810167ffffffffffffffff81118282101715610f0757610f07610fdd565b604052919050565b60008219821115610f2257610f22610fb1565b500190565b600082610f4457634e487b7160e01b600052601260045260246000fd5b500490565b6000816000190483118215151615610f6357610f63610fb1565b500290565b600082821015610f7a57610f7a610fb1565b500390565b600081610f8e57610f8e610fb1565b506000190190565b6000600019821415610faa57610faa610fb1565b5060010190565b634e487b7160e01b600052601160045260246000fd5b634e487b7160e01b600052603260045260246000fd5b634e487b7160e01b600052604160045260246000fdfea2646970667358221220e67721091b82ffd87410978e189e1e9797a11cefa556a876b961ca2dbae5bb1164736f6c63430008060033",
  "devdoc": {
    "kind": "dev",
    "methods": {
      "owner()": {
        "details": "Returns the address of the current owner."
      },
      "renounceOwnership()": {
        "details": "Leaves the contract without owner. It will not be possible to call `onlyOwner` functions anymore. Can only be called by the current owner. NOTE: Renouncing ownership will leave the contract without an owner, thereby removing any functionality that is only available to the owner."
      },
      "transferOwnership(address)": {
        "details": "Transfers ownership of the contract to a new account (`newOwner`). Can only be called by the current owner."
      }
    },
    "version": 1
  },
  "userdoc": {
    "kind": "user",
    "methods": {},
    "version": 1
  },
  "storageLayout": {
    "storage": [
      {
        "astId": 7,
        "contract": "contracts/LockedApi3.sol:LockedApi3",
        "label": "_owner",
        "offset": 0,
        "slot": "0",
        "type": "t_address"
      },
      {
        "astId": 245,
        "contract": "contracts/LockedApi3.sol:LockedApi3",
        "label": "vestingAddresses",
        "offset": 0,
        "slot": "1",
        "type": "t_array(t_address)dyn_storage"
      }
    ],
    "types": {
      "t_address": {
        "encoding": "inplace",
        "label": "address",
        "numberOfBytes": "20"
      },
      "t_array(t_address)dyn_storage": {
        "base": "t_address",
        "encoding": "dynamic_array",
        "label": "address[]",
        "numberOfBytes": "32"
      }
    }
  }
}